{
  "address": "0x489E9642D8df772A942B75669Ae149aC42B10e4D",
  "abi": [
    {
      "inputs": [
        {
          "internalType": "string",
          "name": "tokenName",
          "type": "string"
        },
        {
          "internalType": "string",
          "name": "tokenSymbol",
          "type": "string"
        },
        {
          "internalType": "uint256",
          "name": "_purchaseRatio",
          "type": "uint256"
        },
        {
          "internalType": "uint256",
          "name": "_betPrice",
          "type": "uint256"
        },
        {
          "internalType": "uint256",
          "name": "_betFee",
          "type": "uint256"
        }
      ],
      "stateMutability": "nonpayable",
      "type": "constructor"
    },
    {
      "inputs": [
        {
          "internalType": "address",
          "name": "owner",
          "type": "address"
        }
      ],
      "name": "OwnableInvalidOwner",
      "type": "error"
    },
    {
      "inputs": [
        {
          "internalType": "address",
          "name": "account",
          "type": "address"
        }
      ],
      "name": "OwnableUnauthorizedAccount",
      "type": "error"
    },
    {
      "anonymous": false,
      "inputs": [
        {
          "indexed": true,
          "internalType": "address",
          "name": "previousOwner",
          "type": "address"
        },
        {
          "indexed": true,
          "internalType": "address",
          "name": "newOwner",
          "type": "address"
        }
      ],
      "name": "OwnershipTransferred",
      "type": "event"
    },
    {
      "inputs": [],
      "name": "bet",
      "outputs": [],
      "stateMutability": "nonpayable",
      "type": "function"
    },
    {
      "inputs": [],
      "name": "betFee",
      "outputs": [
        {
          "internalType": "uint256",
          "name": "",
          "type": "uint256"
        }
      ],
      "stateMutability": "view",
      "type": "function"
    },
    {
      "inputs": [
        {
          "internalType": "uint256",
          "name": "times",
          "type": "uint256"
        }
      ],
      "name": "betMany",
      "outputs": [],
      "stateMutability": "nonpayable",
      "type": "function"
    },
    {
      "inputs": [],
      "name": "betPrice",
      "outputs": [
        {
          "internalType": "uint256",
          "name": "",
          "type": "uint256"
        }
      ],
      "stateMutability": "view",
      "type": "function"
    },
    {
      "inputs": [],
      "name": "betsClosingTime",
      "outputs": [
        {
          "internalType": "uint256",
          "name": "",
          "type": "uint256"
        }
      ],
      "stateMutability": "view",
      "type": "function"
    },
    {
      "inputs": [],
      "name": "betsOpen",
      "outputs": [
        {
          "internalType": "bool",
          "name": "",
          "type": "bool"
        }
      ],
      "stateMutability": "view",
      "type": "function"
    },
    {
      "inputs": [],
      "name": "closeLottery",
      "outputs": [],
      "stateMutability": "nonpayable",
      "type": "function"
    },
    {
      "inputs": [
        {
          "internalType": "address",
          "name": "account",
          "type": "address"
        }
      ],
      "name": "getBalance",
      "outputs": [
        {
          "internalType": "uint256",
          "name": "balance",
          "type": "uint256"
        }
      ],
      "stateMutability": "view",
      "type": "function"
    },
    {
      "inputs": [],
      "name": "getRandomNumber",
      "outputs": [
        {
          "internalType": "uint256",
          "name": "randomNumber",
          "type": "uint256"
        }
      ],
      "stateMutability": "view",
      "type": "function"
    },
    {
      "inputs": [
        {
          "internalType": "uint256",
          "name": "closingTime",
          "type": "uint256"
        }
      ],
      "name": "openBets",
      "outputs": [],
      "stateMutability": "nonpayable",
      "type": "function"
    },
    {
      "inputs": [],
      "name": "owner",
      "outputs": [
        {
          "internalType": "address",
          "name": "",
          "type": "address"
        }
      ],
      "stateMutability": "view",
      "type": "function"
    },
    {
      "inputs": [],
      "name": "ownerPool",
      "outputs": [
        {
          "internalType": "uint256",
          "name": "",
          "type": "uint256"
        }
      ],
      "stateMutability": "view",
      "type": "function"
    },
    {
      "inputs": [
        {
          "internalType": "uint256",
          "name": "amount",
          "type": "uint256"
        }
      ],
      "name": "ownerWithdraw",
      "outputs": [],
      "stateMutability": "nonpayable",
      "type": "function"
    },
    {
      "inputs": [],
      "name": "paymentToken",
      "outputs": [
        {
          "internalType": "contract LotteryToken",
          "name": "",
          "type": "address"
        }
      ],
      "stateMutability": "view",
      "type": "function"
    },
    {
      "inputs": [
        {
          "internalType": "address",
          "name": "",
          "type": "address"
        }
      ],
      "name": "prize",
      "outputs": [
        {
          "internalType": "uint256",
          "name": "",
          "type": "uint256"
        }
      ],
      "stateMutability": "view",
      "type": "function"
    },
    {
      "inputs": [],
      "name": "prizePool",
      "outputs": [
        {
          "internalType": "uint256",
          "name": "",
          "type": "uint256"
        }
      ],
      "stateMutability": "view",
      "type": "function"
    },
    {
      "inputs": [
        {
          "internalType": "uint256",
          "name": "amount",
          "type": "uint256"
        }
      ],
      "name": "prizeWithdraw",
      "outputs": [],
      "stateMutability": "nonpayable",
      "type": "function"
    },
    {
      "inputs": [],
      "name": "purchaseRatio",
      "outputs": [
        {
          "internalType": "uint256",
          "name": "",
          "type": "uint256"
        }
      ],
      "stateMutability": "view",
      "type": "function"
    },
    {
      "inputs": [],
      "name": "purchaseTokens",
      "outputs": [],
      "stateMutability": "payable",
      "type": "function"
    },
    {
      "inputs": [],
      "name": "renounceOwnership",
      "outputs": [],
      "stateMutability": "nonpayable",
      "type": "function"
    },
    {
      "inputs": [
        {
          "internalType": "uint256",
          "name": "amount",
          "type": "uint256"
        }
      ],
      "name": "returnTokens",
      "outputs": [],
      "stateMutability": "nonpayable",
      "type": "function"
    },
    {
      "inputs": [
        {
          "internalType": "address",
          "name": "newOwner",
          "type": "address"
        }
      ],
      "name": "transferOwnership",
      "outputs": [],
      "stateMutability": "nonpayable",
      "type": "function"
    }
  ],
  "transactionHash": "0x04b57a3786b8264b5c1431ed1497596d3cf39119c4be7ffc1b4af97c9281225d",
  "args": [
    "Group7LotteryToken",
    "G7T",
    "10000",
    "100000000000000",
    "20000000000000"
  ],
  "numDeployments": 5,
  "solcInputHash": "806ec0a4954a28df23a07f45f425aa1c",
  "bytecode": "0x60806040523480156200001157600080fd5b5060405162001f6c38038062001f6c833981016040819052620000349162000202565b33806200005b57604051631e4fbdf760e01b81526000600482015260240160405180910390fd5b6200006681620000d7565b508484604051620000779062000127565b62000084929190620002b5565b604051809103906000f080158015620000a1573d6000803e3d6000fd5b50600180546001600160a01b0319166001600160a01b039290921691909117905560029290925560035560045550620002e79050565b600080546001600160a01b038381166001600160a01b0319831681178455604051919092169283917f8be0079c531659141344cd1fd0a4f28419497f9722a3daafe3b4186f6b6457e09190a35050565b610fdc8062000f9083390190565b634e487b7160e01b600052604160045260246000fd5b60005b83811015620001685781810151838201526020016200014e565b50506000910152565b600082601f8301126200018357600080fd5b81516001600160401b0380821115620001a057620001a062000135565b604051601f8301601f19908116603f01168101908282118183101715620001cb57620001cb62000135565b81604052838152866020858801011115620001e557600080fd5b620001f88460208301602089016200014b565b9695505050505050565b600080600080600060a086880312156200021b57600080fd5b85516001600160401b03808211156200023357600080fd5b6200024189838a0162000171565b965060208801519150808211156200025857600080fd5b50620002678882890162000171565b60408801516060890151608090990151979a919950979695509350505050565b60008151808452620002a18160208601602086016200014b565b601f01601f19169290920160200192915050565b604081526000620002ca604083018562000287565b8281036020840152620002de818562000287565b95945050505050565b610c9980620002f76000396000f3fe6080604052600436106101355760003560e01c8063729e91e9116100ab578063990a49f51161006f578063990a49f514610307578063cfd8a17514610327578063d1b258ff1461033d578063dbdff2c114610367578063f2fde38b1461037a578063f8b2cb4f1461039a57600080fd5b8063729e91e914610270578063841e6ce9146102905780638adf9c1f146102a65780638da5cb5b146102d357806395cadc47146102f157600080fd5b806333f707d1116100fd57806333f707d1146101d05780633ae1786f146101f05780633cc121e6146102105780636fd0981614610230578063715018a614610245578063719ce73e1461025a57600080fd5b806311610c251461013a57806318c34965146101515780632b65e0401461017a5780633013ce29146101905780633290ce29146101c8575b600080fd5b34801561014657600080fd5b5061014f6103ba565b005b34801561015d57600080fd5b5061016760085481565b6040519081526020015b60405180910390f35b34801561018657600080fd5b5061016760065481565b34801561019c57600080fd5b506001546101b0906001600160a01b031681565b6040516001600160a01b039091168152602001610171565b61014f61052f565b3480156101dc57600080fd5b5061014f6101eb366004610b21565b6105b3565b3480156101fc57600080fd5b5061014f61020b366004610b21565b61069d565b34801561021c57600080fd5b5061014f61022b366004610b21565b61073c565b34801561023c57600080fd5b5061014f6107ad565b34801561025157600080fd5b5061014f6108c8565b34801561026657600080fd5b5061016760055481565b34801561027c57600080fd5b5061014f61028b366004610b21565b6108dc565b34801561029c57600080fd5b5061016760045481565b3480156102b257600080fd5b506101676102c1366004610b3a565b60096020526000908152604090205481565b3480156102df57600080fd5b506000546001600160a01b03166101b0565b3480156102fd57600080fd5b5061016760025481565b34801561031357600080fd5b5061014f610322366004610b21565b610909565b34801561033357600080fd5b5061016760035481565b34801561034957600080fd5b506007546103579060ff1681565b6040519015158152602001610171565b34801561037357600080fd5b5044610167565b34801561038657600080fd5b5061014f610395366004610b3a565b6109c2565b3480156103a657600080fd5b506101676103b5366004610b3a565b6109fd565b60075460ff1680156103cd575060085442105b6104125760405162461bcd60e51b8152602060048201526011602482015270131bdd1d195c9e481a5cc818db1bdcd959607a1b60448201526064015b60405180910390fd5b600454600660008282546104269190610b80565b909155505060035460058054600090610440908490610b80565b9091555050600a8054600181810183556000929092527fc65a7bb8d6351c1cf70c95a316cc6a92839c986682d98bc35f958f4883f9d2a80180546001600160a01b0319163390811790915590546004546003546001600160a01b0392909216926323b872dd92909130916104b49190610b80565b6040516001600160e01b031960e086901b1681526001600160a01b03938416600482015292909116602483015260448201526064016020604051808303816000875af1158015610508573d6000803e3d6000fd5b505050506040513d601f19601f8201168201806040525081019061052c9190610b93565b50565b6001546002546001600160a01b03909116906340c10f199033906105539034610bb5565b6040516001600160e01b031960e085901b1681526001600160a01b0390921660048301526024820152604401600060405180830381600087803b15801561059957600080fd5b505af11580156105ad573d6000803e3d6000fd5b50505050565b6105bb610a72565b60065481111561060d5760405162461bcd60e51b815260206004820152601960248201527f4e6f7420656e6f756768206665657320636f6c6c6563746564000000000000006044820152606401610409565b806006600082825461061f9190610bcc565b909155505060015460405163a9059cbb60e01b8152336004820152602481018390526001600160a01b039091169063a9059cbb906044016020604051808303816000875af1158015610675573d6000803e3d6000fd5b505050506040513d601f19601f820116820180604052508101906106999190610b93565b5050565b60015460405163079cc67960e41b8152336004820152602481018390526001600160a01b03909116906379cc679090604401600060405180830381600087803b1580156106e957600080fd5b505af11580156106fd573d6000803e3d6000fd5b50506002543392506108fc91506107149084610bf5565b6040518115909202916000818181858888f19350505050158015610699573d6000803e3d6000fd5b3360009081526009602052604090205481111561078e5760405162461bcd60e51b815260206004820152601060248201526f4e6f7420656e6f756768207072697a6560801b6044820152606401610409565b336000908152600960205260408120805483929061061f908490610bcc565b6008544210156107f35760405162461bcd60e51b8152602060048201526011602482015270546f6f20736f6f6e20746f20636c6f736560781b6044820152606401610409565b60075460ff166108365760405162461bcd60e51b815260206004820152600e60248201526d105b1c9958591e4818db1bdcd95960921b6044820152606401610409565b600a54156108bc57600a5460009061084e9044610c09565b90506000600a828154811061086557610865610c1d565b60009182526020808320909101546005546001600160a01b039091168084526009909252604083208054929450909290916108a1908490610b80565b9091555050600060058190556108b990600a90610aef565b50505b6007805460ff19169055565b6108d0610a72565b6108da6000610a9f565b565b600081116108e957600080fd5b801561052c576108f76103ba565b8061090181610c33565b9150506108e9565b610911610a72565b60075460ff16156109565760405162461bcd60e51b815260206004820152600f60248201526e2637ba3a32b93c9034b99037b832b760891b6044820152606401610409565b4281116109b05760405162461bcd60e51b815260206004820152602260248201527f436c6f73696e672074696d65206d75737420626520696e207468652066757475604482015261726560f01b6064820152608401610409565b6008556007805460ff19166001179055565b6109ca610a72565b6001600160a01b0381166109f457604051631e4fbdf760e01b815260006004820152602401610409565b61052c81610a9f565b6001546040516370a0823160e01b81526001600160a01b03838116600483015260009216906370a0823190602401602060405180830381865afa158015610a48573d6000803e3d6000fd5b505050506040513d601f19601f82011682018060405250810190610a6c9190610c4a565b92915050565b6000546001600160a01b031633146108da5760405163118cdaa760e01b8152336004820152602401610409565b600080546001600160a01b038381166001600160a01b0319831681178455604051919092169283917f8be0079c531659141344cd1fd0a4f28419497f9722a3daafe3b4186f6b6457e09190a35050565b508054600082559060005260206000209081019061052c91905b80821115610b1d5760008155600101610b09565b5090565b600060208284031215610b3357600080fd5b5035919050565b600060208284031215610b4c57600080fd5b81356001600160a01b0381168114610b6357600080fd5b9392505050565b634e487b7160e01b600052601160045260246000fd5b80820180821115610a6c57610a6c610b6a565b600060208284031215610ba557600080fd5b81518015158114610b6357600080fd5b8082028115828204841417610a6c57610a6c610b6a565b81810381811115610a6c57610a6c610b6a565b634e487b7160e01b600052601260045260246000fd5b600082610c0457610c04610bdf565b500490565b600082610c1857610c18610bdf565b500690565b634e487b7160e01b600052603260045260246000fd5b600081610c4257610c42610b6a565b506000190190565b600060208284031215610c5c57600080fd5b505191905056fea26469706673582212204342b00ff61efedc385e664c72d9c3627891ab79d3c84139d008e6184646427764736f6c6343000818003360806040523480156200001157600080fd5b5060405162000fdc38038062000fdc833981016040819052620000349162000216565b8181600362000044838262000311565b50600462000053828262000311565b5062000065915060009050336200009b565b50620000927f9f2df0fed2c77648de5860a4cc508cd0818c85b8b8a1ab4ceeef8d981c8956a6336200009b565b505050620003dd565b60008281526005602090815260408083206001600160a01b038516845290915281205460ff16620001445760008381526005602090815260408083206001600160a01b03861684529091529020805460ff19166001179055620000fb3390565b6001600160a01b0316826001600160a01b0316847f2f8788117e7eff1d82e926ec794901d17c78024a50270940304540a733656f0d60405160405180910390a450600162000148565b5060005b92915050565b634e487b7160e01b600052604160045260246000fd5b600082601f8301126200017657600080fd5b81516001600160401b03808211156200019357620001936200014e565b604051601f8301601f19908116603f01168101908282118183101715620001be57620001be6200014e565b8160405283815260209250866020858801011115620001dc57600080fd5b600091505b83821015620002005785820183015181830184015290820190620001e1565b6000602085830101528094505050505092915050565b600080604083850312156200022a57600080fd5b82516001600160401b03808211156200024257600080fd5b620002508683870162000164565b935060208501519150808211156200026757600080fd5b50620002768582860162000164565b9150509250929050565b600181811c908216806200029557607f821691505b602082108103620002b657634e487b7160e01b600052602260045260246000fd5b50919050565b601f8211156200030c576000816000526020600020601f850160051c81016020861015620002e75750805b601f850160051c820191505b818110156200030857828155600101620002f3565b5050505b505050565b81516001600160401b038111156200032d576200032d6200014e565b62000345816200033e845462000280565b84620002bc565b602080601f8311600181146200037d5760008415620003645750858301515b600019600386901b1c1916600185901b17855562000308565b600085815260208120601f198616915b82811015620003ae578886015182559484019460019091019084016200038d565b5085821015620003cd5787850151600019600388901b60f8161c191681555b5050505050600190811b01905550565b610bef80620003ed6000396000f3fe608060405234801561001057600080fd5b506004361061012c5760003560e01c806342966c68116100ad578063a217fddf11610071578063a217fddf1461027d578063a9059cbb14610285578063d539139314610298578063d547741f146102bf578063dd62ed3e146102d257600080fd5b806342966c681461021357806370a082311461022657806379cc67901461024f57806391d148541461026257806395d89b411461027557600080fd5b8063248a9ca3116100f4578063248a9ca3146101a65780632f2ff15d146101c9578063313ce567146101de57806336568abe146101ed57806340c10f191461020057600080fd5b806301ffc9a71461013157806306fdde0314610159578063095ea7b31461016e57806318160ddd1461018157806323b872dd14610193575b600080fd5b61014461013f3660046109d2565b61030b565b60405190151581526020015b60405180910390f35b610161610342565b6040516101509190610a03565b61014461017c366004610a6e565b6103d4565b6002545b604051908152602001610150565b6101446101a1366004610a98565b6103ec565b6101856101b4366004610ad4565b60009081526005602052604090206001015490565b6101dc6101d7366004610aed565b610410565b005b60405160128152602001610150565b6101dc6101fb366004610aed565b61043b565b6101dc61020e366004610a6e565b610473565b6101dc610221366004610ad4565b6104a7565b610185610234366004610b19565b6001600160a01b031660009081526020819052604090205490565b6101dc61025d366004610a6e565b6104b4565b610144610270366004610aed565b6104cd565b6101616104f8565b610185600081565b610144610293366004610a6e565b610507565b6101857f9f2df0fed2c77648de5860a4cc508cd0818c85b8b8a1ab4ceeef8d981c8956a681565b6101dc6102cd366004610aed565b610515565b6101856102e0366004610b34565b6001600160a01b03918216600090815260016020908152604080832093909416825291909152205490565b60006001600160e01b03198216637965db0b60e01b148061033c57506301ffc9a760e01b6001600160e01b03198316145b92915050565b60606003805461035190610b5e565b80601f016020809104026020016040519081016040528092919081815260200182805461037d90610b5e565b80156103ca5780601f1061039f576101008083540402835291602001916103ca565b820191906000526020600020905b8154815290600101906020018083116103ad57829003601f168201915b5050505050905090565b6000336103e281858561053a565b5060019392505050565b6000336103fa858285610547565b6104058585856105c4565b506001949350505050565b60008281526005602052604090206001015461042b81610623565b610435838361062d565b50505050565b6001600160a01b03811633146104645760405163334bd91960e11b815260040160405180910390fd5b61046e82826106c1565b505050565b7f9f2df0fed2c77648de5860a4cc508cd0818c85b8b8a1ab4ceeef8d981c8956a661049d81610623565b61046e838361072e565b6104b13382610764565b50565b6104bf823383610547565b6104c98282610764565b5050565b60009182526005602090815260408084206001600160a01b0393909316845291905290205460ff1690565b60606004805461035190610b5e565b6000336103e28185856105c4565b60008281526005602052604090206001015461053081610623565b61043583836106c1565b61046e838383600161079a565b6001600160a01b03838116600090815260016020908152604080832093861683529290522054600019811461043557818110156105b557604051637dc7a0d960e11b81526001600160a01b038416600482015260248101829052604481018390526064015b60405180910390fd5b6104358484848403600061079a565b6001600160a01b0383166105ee57604051634b637e8f60e11b8152600060048201526024016105ac565b6001600160a01b0382166106185760405163ec442f0560e01b8152600060048201526024016105ac565b61046e83838361086f565b6104b18133610999565b600061063983836104cd565b6106b95760008381526005602090815260408083206001600160a01b03861684529091529020805460ff191660011790556106713390565b6001600160a01b0316826001600160a01b0316847f2f8788117e7eff1d82e926ec794901d17c78024a50270940304540a733656f0d60405160405180910390a450600161033c565b50600061033c565b60006106cd83836104cd565b156106b95760008381526005602090815260408083206001600160a01b0386168085529252808320805460ff1916905551339286917ff6391f5c32d9c69d2a47ea670b442974b53935d1edc7fd64eb21e047a839171b9190a450600161033c565b6001600160a01b0382166107585760405163ec442f0560e01b8152600060048201526024016105ac565b6104c96000838361086f565b6001600160a01b03821661078e57604051634b637e8f60e11b8152600060048201526024016105ac565b6104c98260008361086f565b6001600160a01b0384166107c45760405163e602df0560e01b8152600060048201526024016105ac565b6001600160a01b0383166107ee57604051634a1406b160e11b8152600060048201526024016105ac565b6001600160a01b038085166000908152600160209081526040808320938716835292905220829055801561043557826001600160a01b0316846001600160a01b03167f8c5be1e5ebec7d5bd14f71427d1e84f3dd0314c0f7b2291e5b200ac8c7c3b9258460405161086191815260200190565b60405180910390a350505050565b6001600160a01b03831661089a57806002600082825461088f9190610b98565b9091555061090c9050565b6001600160a01b038316600090815260208190526040902054818110156108ed5760405163391434e360e21b81526001600160a01b038516600482015260248101829052604481018390526064016105ac565b6001600160a01b03841660009081526020819052604090209082900390555b6001600160a01b03821661092857600280548290039055610947565b6001600160a01b03821660009081526020819052604090208054820190555b816001600160a01b0316836001600160a01b03167fddf252ad1be2c89b69c2b068fc378daa952ba7f163c4a11628f55a4df523b3ef8360405161098c91815260200190565b60405180910390a3505050565b6109a382826104cd565b6104c95760405163e2517d3f60e01b81526001600160a01b0382166004820152602481018390526044016105ac565b6000602082840312156109e457600080fd5b81356001600160e01b0319811681146109fc57600080fd5b9392505050565b60006020808352835180602085015260005b81811015610a3157858101830151858201604001528201610a15565b506000604082860101526040601f19601f8301168501019250505092915050565b80356001600160a01b0381168114610a6957600080fd5b919050565b60008060408385031215610a8157600080fd5b610a8a83610a52565b946020939093013593505050565b600080600060608486031215610aad57600080fd5b610ab684610a52565b9250610ac460208501610a52565b9150604084013590509250925092565b600060208284031215610ae657600080fd5b5035919050565b60008060408385031215610b0057600080fd5b82359150610b1060208401610a52565b90509250929050565b600060208284031215610b2b57600080fd5b6109fc82610a52565b60008060408385031215610b4757600080fd5b610b5083610a52565b9150610b1060208401610a52565b600181811c90821680610b7257607f821691505b602082108103610b9257634e487b7160e01b600052602260045260246000fd5b50919050565b8082018082111561033c57634e487b7160e01b600052601160045260246000fdfea2646970667358221220b5f5772c113210feaa0d2cdb5e3010cd588e75e202db1483ce290bd86ef7657964736f6c63430008180033",
  "devdoc": {
    "author": "Matheus Pagani",
    "custom:teaching": "This is a contract meant for teaching only",
    "details": "This contract implements a relatively weak randomness source, since there is no cliff period between the randao reveal and the actual usage in this contract",
    "errors": {
      "OwnableInvalidOwner(address)": [
        {
          "details": "The owner is not a valid owner account. (eg. `address(0)`)"
        }
      ],
      "OwnableUnauthorizedAccount(address)": [
        {
          "details": "The caller account is not authorized to perform an operation."
        }
      ]
    },
    "kind": "dev",
    "methods": {
      "closeLottery()": {
        "details": "Anyone can call this function at any time after the closing time"
      },
      "constructor": {
        "params": {
          "_betFee": "Amount of tokens required for placing a bet that goes for the owner pool",
          "_betPrice": "Amount of tokens required for placing a bet that goes for the prize pool",
          "_purchaseRatio": "Amount of tokens given per ETH paid",
          "tokenName": "Name of the token used for payment",
          "tokenSymbol": "Symbol of the token used for payment"
        }
      },
      "getRandomNumber()": {
        "details": "This only works after The Merge"
      },
      "owner()": {
        "details": "Returns the address of the current owner."
      },
      "purchaseTokens()": {
        "details": "This implementation is prone to rounding problems"
      },
      "renounceOwnership()": {
        "details": "Leaves the contract without owner. It will not be possible to call `onlyOwner` functions. Can only be called by the current owner. NOTE: Renouncing ownership will leave the contract without an owner, thereby disabling any functionality that is only available to the owner."
      },
      "transferOwnership(address)": {
        "details": "Transfers ownership of the contract to a new account (`newOwner`). Can only be called by the current owner."
      }
    },
    "stateVariables": {
      "_slots": {
        "details": "List of bet slots"
      }
    },
    "title": "A very simple lottery contract",
    "version": 1
  },
  "userdoc": {
    "kind": "user",
    "methods": {
      "bet()": {
        "notice": "Charges the bet price and creates a new bet slot with the sender's address"
      },
      "betFee()": {
        "notice": "Amount of tokens required for placing a bet that goes for the owner pool"
      },
      "betMany(uint256)": {
        "notice": "Calls the bet function `times` times"
      },
      "betPrice()": {
        "notice": "Amount of tokens required for placing a bet that goes for the prize pool"
      },
      "betsClosingTime()": {
        "notice": "Timestamp of the lottery next closing date and time"
      },
      "betsOpen()": {
        "notice": "Flag indicating whether the lottery is open for bets or not"
      },
      "closeLottery()": {
        "notice": "Closes the lottery and calculates the prize, if any"
      },
      "constructor": {
        "notice": "Constructor function"
      },
      "getRandomNumber()": {
        "notice": "Returns a random number calculated from the previous block randao"
      },
      "openBets(uint256)": {
        "notice": "Opens the lottery for receiving bets"
      },
      "ownerPool()": {
        "notice": "Amount of tokens in the owner pool"
      },
      "ownerWithdraw(uint256)": {
        "notice": "Withdraws `amount` from the owner's pool"
      },
      "paymentToken()": {
        "notice": "Address of the token used as payment for the bets"
      },
      "prize(address)": {
        "notice": "Mapping of prize available for withdraw for each account"
      },
      "prizePool()": {
        "notice": "Amount of tokens in the prize pool"
      },
      "prizeWithdraw(uint256)": {
        "notice": "Withdraws `amount` from that accounts's prize pool"
      },
      "purchaseRatio()": {
        "notice": "Amount of tokens given per ETH paid"
      },
      "purchaseTokens()": {
        "notice": "Gives tokens based on the amount of ETH sent"
      },
      "returnTokens(uint256)": {
        "notice": "Burns `amount` tokens and give the equivalent ETH back to user"
      }
    },
    "notice": "You can use this contract for running a very simple lottery",
    "version": 1
  },
  "storageLayout": {
    "storage": [
      {
        "astId": 387,
        "contract": "contracts/Lottery.sol:Lottery",
        "label": "_owner",
        "offset": 0,
        "slot": "0",
        "type": "t_address"
      },
      {
        "astId": 1407,
        "contract": "contracts/Lottery.sol:Lottery",
        "label": "paymentToken",
        "offset": 0,
        "slot": "1",
        "type": "t_contract(LotteryToken)1833"
      },
      {
        "astId": 1410,
        "contract": "contracts/Lottery.sol:Lottery",
        "label": "purchaseRatio",
        "offset": 0,
        "slot": "2",
        "type": "t_uint256"
      },
      {
        "astId": 1413,
        "contract": "contracts/Lottery.sol:Lottery",
        "label": "betPrice",
        "offset": 0,
        "slot": "3",
        "type": "t_uint256"
      },
      {
        "astId": 1416,
        "contract": "contracts/Lottery.sol:Lottery",
        "label": "betFee",
        "offset": 0,
        "slot": "4",
        "type": "t_uint256"
      },
      {
        "astId": 1419,
        "contract": "contracts/Lottery.sol:Lottery",
        "label": "prizePool",
        "offset": 0,
        "slot": "5",
        "type": "t_uint256"
      },
      {
        "astId": 1422,
        "contract": "contracts/Lottery.sol:Lottery",
        "label": "ownerPool",
        "offset": 0,
        "slot": "6",
        "type": "t_uint256"
      },
      {
        "astId": 1425,
        "contract": "contracts/Lottery.sol:Lottery",
        "label": "betsOpen",
        "offset": 0,
        "slot": "7",
        "type": "t_bool"
      },
      {
        "astId": 1428,
        "contract": "contracts/Lottery.sol:Lottery",
        "label": "betsClosingTime",
        "offset": 0,
        "slot": "8",
        "type": "t_uint256"
      },
      {
        "astId": 1433,
        "contract": "contracts/Lottery.sol:Lottery",
        "label": "prize",
        "offset": 0,
        "slot": "9",
        "type": "t_mapping(t_address,t_uint256)"
      },
      {
        "astId": 1437,
        "contract": "contracts/Lottery.sol:Lottery",
        "label": "_slots",
        "offset": 0,
        "slot": "10",
        "type": "t_array(t_address)dyn_storage"
      }
    ],
    "types": {
      "t_address": {
        "encoding": "inplace",
        "label": "address",
        "numberOfBytes": "20"
      },
      "t_array(t_address)dyn_storage": {
        "base": "t_address",
        "encoding": "dynamic_array",
        "label": "address[]",
        "numberOfBytes": "32"
      },
      "t_bool": {
        "encoding": "inplace",
        "label": "bool",
        "numberOfBytes": "1"
      },
      "t_contract(LotteryToken)1833": {
        "encoding": "inplace",
        "label": "contract LotteryToken",
        "numberOfBytes": "20"
      },
      "t_mapping(t_address,t_uint256)": {
        "encoding": "mapping",
        "key": "t_address",
        "label": "mapping(address => uint256)",
        "numberOfBytes": "32",
        "value": "t_uint256"
      },
      "t_uint256": {
        "encoding": "inplace",
        "label": "uint256",
        "numberOfBytes": "32"
      }
    }
  }
}